:020000040800F2
:100000000028002011020008B5010008BB0100080B
:10001000C1010008C7010008CD0100080000000070
:10002000000000000000000000000000D3010008F4
:10003000DF01000800000000EB010008F7010008E4
:100040005902000859020008590200085902000824
:100050005902000859020008590200085902000814
:100060005902000859020008590200085902000804
:1000700059020008590200085902000859020008F4
:1000800059020008590200085902000859020008E4
:1000900059020008590200085902000859020008D4
:1000A00059020008590200085902000859020008C4
:1000B0005902000859020008000000005902000817
:1000C000590200080000000000000000590200086A
:1000D000000000005902000859020008000000005A
:1000E00059020008590200085902000800000000E7
:1000F0000000000000000000000000000000000000
:0C01000000000000000000005FF808F1A3
:10010C0010B5054C237833B9044B13B10448AFF345
:10011C0000800123237010BD0400002000000000AB
:10012C00C802000808B5034B1BB103490348AFF3E1
:10013C00008008BD0000000008000020C802000874
:10014C0080B483B000AF174B5B68164A23F470037E
:10015C005360144B5B68134A43F400135360114B08
:10016C001B69104A43F40053136100237B6002E0C7
:10017C007B6801337B607B6844F61F629342F7D93E
:10018C00084B5B69074A43F40053536100237B60BF
:10019C0002E07B6801337B607B6844F61F6293420C
:1001AC00F7D9DCE70008014080B400AFFEE780B46B
:1001BC0000AFFEE780B400AFFEE780B400AFFEE70F
:1001CC0080B400AFFEE780B400AF00BFBD4680BC7A
:1001DC00704780B400AF00BFBD4680BC704780B490
:1001EC0000AF00BFBD4680BC704780B500AF00F0CB
:1001FC002FF800BF80BD80B400AF00BFBD4680BCEF
:10020C0070470000FFF7F7FF0B480C490C4A00231E
:10021C0002E0D458C4500433C4188C42F9D3094AB0
:10022C00094C002301E013600432A242FBD300F01E
:10023C0021F8FFF785FF7047000000200400002024
:10024C00E80200080400002024000020FEE7000063
:10025C0080B400AF054B1B781A46054B1B68134442
:10026C00034A136000BFBD4680BC704700000020ED
:10027C002000002070B500260C4D0D4C641BA41002
:10028C00A64209D100F01AF800260A4D0A4C641B4C
:10029C00A410A64205D170BD55F8043B9847013611
:1002AC00EEE755F8043B98470136F2E7E002000808
:1002BC00E0020008E0020008E4020008F8B500BF04
:1002CC00F8BC08BC9E467047F8B500BFF8BC08BC2B
:0402DC009E46704783
:0402E00031010008E0
:0402E4000D01000800
:0402E8000100000011
:0400000508000211DC
:00000001FF
