:020000040800F2
:1000000000500020090E0008D9060008DF0600088D
:10001000E5060008EB060008F106000800000000F5
:10002000000000000000000000000000F7060008CB
:1000300003070008000000000F0700081B07000866
:10004000510E0008510E0008510E0008510E000814
:10005000510E0008510E0008510E0008510E000804
:10006000510E0008510E0008510E0008510E0008F4
:10007000510E0008510E0008510E0008510E0008E4
:10008000510E0008510E0008510E0008510E0008D4
:10009000510E0008510E0008510E000829070008F3
:1000A000510E000881090008510E0008510E000889
:1000B000910A0008CD0B0008F10C0008510E000851
:1000C000510E0008510E0008510E0008510E000894
:1000D000510E0008510E0008510E0008510E000884
:1000E000510E0008510E0008510E000800000000DB
:1000F0000000000000000000000000000000000000
:0C01000000000000000000005FF808F1A3
:10010C0010B5054C237833B9044B13B10448AFF345
:10011C0000800123237010BD180000200000000097
:10012C004C25000808B5034B1BB103490348AFF33A
:10013C00008008BD000000001C0000204C250008B9
:10014C0080B500AF00F080FE00F02EF800F0A4F9AE
:10015C0000F066F800F0B6F800F002F900F04EF985
:10016C000C4801F00BFE0C4801F008FE0B4801F0A6
:10017C0005FE0B4801F002FE0A4B1B78012B05D142
:10018C00C82000F0C3FE074B00221A700A2000F0B2
:10019C00BDFEF1E7340000207C000020C4000020EC
:1001AC000C0100205401002080B590B000AF07F185
:1001BC00180328220021184602F096F93B1D002254
:1001CC001A605A609A60DA601A610223BB610123DB
:1001DC00BB621023FB6200237B6307F118031846F4
:1001EC0001F09EF90346002B01D000F0BFF90F235C
:1001FC007B600023BB600023FB6000233B6100237A
:10020C007B613B1D0021184601F00CFC0346002BC2
:10021C0001D000F0ABF900BF4037BD4680BD0000F7
:10022C0080B586B000AF07F1080300221A605A604F
:10023C009A60DA603B4600221A605A601F4B204AD3
:10024C001A601E4B41F63F725A601C4B00229A609A
:10025C001A4B40F2E732DA60184B00221A61174B46
:10026C0000225A61154B00229A61144801F036FDA8
:10027C000346002B01D000F079F94FF48053BB609A
:10028C0007F1080319460D4801F0D2FE0346002B76
:10029C0001D000F06BF900233B6000237B603B46F0
:1002AC001946064802F0B0F80346002B01D000F0C6
:1002BC005DF900BF1837BD4680BD00BF340000207B
:1002CC00002C014080B586B000AF07F10803002276
:1002DC001A605A609A60DA603B4600221A605A60D3
:1002EC001E4B4FF080421A601C4B41F63F725A6015
:1002FC001A4B00229A60194B40F2E732DA60174B26
:10030C0000221A61154B00229A61144801F0E6FC98
:10031C000346002B01D000F029F94FF48053BB6049
:10032C0007F1080319460D4801F082FE0346002B25
:10033C0001D000F01BF900233B6000237B603B469F
:10034C001946064802F060F80346002B01D000F075
:10035C000DF900BF1837BD4680BD00BF7C000020E2
:10036C0080B586B000AF07F1080300221A605A600E
:10037C009A60DA603B4600221A605A601D4B1E4A96
:10038C001A601C4B41F63F725A601A4B00229A605D
:10039C00184B40F2E732DA60164B00221A61154B0B
:1003AC0000229A61134801F099FC0346002B01D0FE
:1003BC0000F0DCF84FF48053BB6007F108031946DA
:1003CC000C4801F035FE0346002B01D000F0CEF8AE
:1003DC0000233B6000237B603B461946054802F036
:1003EC0013F80346002B01D000F0C0F800BF1837FB
:1003FC00BD4680BDC40000200004004080B586B01E
:10040C0000AF07F1080300221A605A609A60DA60A4
:10041C003B4600221A605A601D4B1E4A1A601C4B48
:10042C0041F63F725A601A4B00229A60184B40F208
:10043C00E732DA60164B00221A61154B00229A61E2
:10044C00134801F04BFC0346002B01D000F08EF852
:10045C004FF48053BB6007F1080319460C4801F0B8
:10046C00E7FD0346002B01D000F080F800233B6031
:10047C0000237B603B461946054801F0C5FF034647
:10048C00002B01D000F072F800BF1837BD4680BDBC
:10049C000C0100200008004080B586B000AF07F1C9
:1004AC00080300221A605A609A60DA602B4B9B6931
:1004BC002A4A43F004039361284B9B6903F004031D
:1004CC007B607B68254B9B69244A43F0080393614E
:1004DC00224B9B6903F008033B603B680022102110
:1004EC001F4800F0C9FF00224FF424411D4800F0C2
:1004FC00C3FF1023BB600123FB6000233B6102237D
:10050C007B6107F108031946154800F031FE4FF4E2
:10051C002443BB600123FB6000233B6102237B610E
:10052C0007F1080319460F4800F022FE2023BB6098
:10053C000D4BFB6001233B6107F108031946094889
:10054C0000F016FE00220021172000F0DAFD172023
:10055C0000F0F3FD00BF1837BD4680BD001002400F
:10056C0000080140000C01400000211080B400AFD5
:10057C0072B600BFFEE7000080B485B000AF154B2B
:10058C009B69144A43F001039361124B9B6903F07E
:10059C000103BB60BB680F4BDB690E4A43F0805311
:1005AC00D3610C4BDB6903F080537B607B680A4B97
:1005BC005B68FB60FB6823F0E063FB60FB6843F067
:1005CC000073FB60044AFB68536000BF1437BD46E0
:1005DC0080BC7047001002400000014080B586B01E
:1005EC0000AF78607B681B68344A934214D1344B5B
:1005FC009B69334A43F400639361314B9B6903F469
:10060C0000637B617B6900220121192000F079FDD8
:10061C00192000F092FD4CE07B681B68B3F1804F11
:10062C0014D1274BDB69264A43F00103D361244BD9
:10063C00DB6903F001033B613B69002201211C20B3
:10064C0000F05FFD1C2000F078FD32E07B681B6839
:10065C001C4A934214D11A4BDB69194A43F002032A
:10066C00D361174BDB6903F00203FB60FB680022CC
:10067C0001211D2000F045FD1D2000F05EFD18E05D
:10068C007B681B68104A934213D10D4BDB690C4AF3
:10069C0043F00403D3610A4BDB6903F00403BB6032
:1006AC00BB68002201211E2000F02BFD1E2000F053
:1006BC0044FD00BF1837BD4680BD00BF002C014073
:1006CC0000100240000400400008004080B400AF5D
:1006DC00FEE780B400AFFEE780B400AFFEE780B465
:1006EC0000AFFEE780B400AFFEE780B400AF00BF00
:1006FC00BD4680BC704780B400AF00BFBD4680BC17
:10070C00704780B400AF00BFBD4680BC704780B559
:10071C0000AF00F0DFFB00BF80BD000080B500AF74
:10072C00844B1B78002B40F0FF8000224FF40041DB
:10073C00814800F0A1FE00224FF400517E4800F0E9
:10074C009BFE002210217D4800F096FE00224FF403
:10075C008061794800F090FE794B00221A70754B3D
:10076C0001221A70774B1B780133DAB2754B1A7071
:10077C00744B1B78052B02D1724B01221A70714BF2
:10078C001B78013B032B00F2CF8001A252F823F01F
:10079C00AD070008FF07000869080008CF0800082B
:1007AC00694B40F2E7321A80684B40F2CF721A80E4
:1007BC00674B01221A70674B01221A70664B1B683B
:1007CC00654A43F0010313604FF080431B684FF000
:1007DC00804243F001031360604B1B685F4A23F0B7
:1007EC00010313605E4B1B685D4A23F00103136029
:1007FC009AE0554B4FF47A721A80544B4FF4FA62CC
:10080C001A80584B64221A80574B01221A80504B85
:10081C0001221A704F4B01221A70544B01221A708C
:10082C00534B01221A704C4B1B684B4A43F001038B
:10083C0013604FF080431B684FF0804243F001037C
:10084C001360464B1B68454A43F001031360444B4D
:10085C001B68434A43F00103136065E03A4B3222B4
:10086C001A803A4B32221A803E4B32221A803E4B6F
:10087C0032221A80364B01221A70364B00221A7023
:10088C003A4B00221A703A4B00221A70324B1B68FA
:10089C00314A43F0010313604FF080431B684FF063
:1008AC00804243F0010313602C4B1B682B4A43F02E
:1008BC00010313602A4B1B68294A43F001031360A0
:1008CC0032E0214B19221A80204B19221A80254B19
:1008DC0019221A80244B19221A801D4B01221A70DE
:1008EC001C4B00221A70214B00221A70204B002244
:1008FC001A70194B1B68184A43F0010313604FF030
:10090C0080431B684FF0804243F001031360134B8C
:10091C001B68124A43F001031360114B1B68104A09
:10092C0043F00103136000BF202000F0D7FD00BF8F
:10093C0080BD00BF54010020000C014000080140A4
:10094C0055010020000000200200002004000020BF
:10095C005701002058010020002C014000040040E9
:10096C00000800400600002008000020590100206B
:10097C005A01002080B500AF394B1A88394BDA6226
:10098C00394801F04DFA394B1B78012B65D1384BA6
:10099C001B78013B032B60D801A252F823F000BF57
:1009AC00BD090008C9090008D5090008230A000878
:1009BC004FF400412F4800F077FD4EE04FF400411A
:1009CC002C4800F071FD48E04FF40041294800F03C
:1009DC006BFD294B1B780133DAB2274B1A70264B6F
:1009EC001B78012B38D9244B00221A701F4B002284
:1009FC001A70224B01221A704FF080431B684FF083
:100A0C00804243F001031360164B1B68154A23F018
:100A1C000103136020E04FF40041164800F044FD40
:100A2C00174B1B78002B13D1104B00221A70134B51
:100A3C0001221A704FF080431B684FF0804243F044
:100A4C0001031360074B1B68064A23F00103136074
:100A5C000B4B00221A7000E000BF00BF80BD00BF2E
:100A6C0002000020002C014034000020570100201F
:100A7C0000000020000C014055010020580100200E
:100A8C005601002080B500AF424B1A884FF08043CE
:100A9C00DA62414801F0C4F9404B1B78012B76D146
:100AAC003F4B1B78013B032B71D801A252F823F06A
:100ABC00CD0A0008D90A0008E50A0008330B000823
:100ACC004FF40051374800F0EFFC60E04FF4005158
:100ADC00344800F0E9FC5AE04FF40051314800F082
:100AEC00E3FC314B1B780133DAB22F4B1A702E4BCF
:100AFC001B78012B4AD92C4B00221A70274B002251
:100B0C001A702A4B01221A70294B1B68284A43F091
:100B1C00010313604FF080431B684FF0804223F0B9
:100B2C000103136032E04FF400511E4800F0BCFC8E
:100B3C00204B1B78002B14D1184B00221A701B4B26
:100B4C0001221A701A4B1B68194A43F001031360F7
:100B5C004FF080431B684FF0804223F00103136079
:100B6C0015E0154B01221A700C4B00221A70134B16
:100B7C001B68124A43F0010313604FF080431B685B
:100B8C004FF0804223F00103136000E000BF00BF70
:100B9C0080BD00BF040000207C0000205801002014
:100BAC0000000020000C01405501002059010020DC
:100BBC00000400405601002057010020002C014089
:100BCC0080B500AF3C4B1A883C4BDA623C4801F0D4
:100BDC0027F93C4B1B78012B6CD13B4B1B78013B11
:100BEC00032B67D801A252F823F000BFBB0C0008FE
:100BFC00090C0008130C00085B0C0008102133488A
:100C0C0000F052FC56E01021304800F04DFC304B07
:100C1C001B780133DAB22E4B1A702D4B1B78012B3B
:100C2C0047D92B4B00221A70264B00221A70294BE5
:100C3C0001221A70284B1B68274A43F001031360EA
:100C4C001E4B1B681D4A23F00103136031E0102179
:100C5C001E4800F029FC214B1B78002B12D1194B9C
:100C6C0000221A701B4B01221A701B4B1B681A4A6C
:100C7C0043F001031360114B1B68104A23F001036E
:100C8C00136017E00F4B00221A70154B01221A70DB
:100C9C004FF080431B684FF0804243F00103136018
:100CAC00064B1B68054A23F00103136002E000BFEA
:100CBC0000E000BF00BF80BD060000200004004023
:100CCC00C400002059010020000000200008014051
:100CDC00550100205A010020000800405601002058
:100CEC005801002080B500AF354B1A88354BDA62BD
:100CFC00354801F095F8354B1B78012B5DD1344B01
:100D0C001B78013B032B58D801A252F823F000BFEB
:100D1C00C10D00082D0D0008390D0008830D0008C9
:100D2C004FF480612B4800F0BFFB46E04FF480612C
:100D3C00284800F0B9FB284B1B780133DAB2264B5C
:100D4C001A70254B1B78012B36D9234B00221A70B5
:100D5C001E4B00221A70214B01221A70204B1B686B
:100D6C001F4A43F001031360164B1B68154A23F00E
:100D7C000103136020E04FF48061164800F094FBEF
:100D8C00184B1B78012B11D1104B00221A70164BEB
:100D9C0001221A70154B1B68144A43F001031360AF
:100DAC00084B1B68074A23F0010313600D4B01220B
:100DBC001A7002E000BF00E000BF00BF80BD00BFA2
:100DCC0008000020000800400C0100205A010020FF
:100DDC0000000020000C01405501002057010020AC
:100DEC00002C014056010020590100200004004055
:100DFC0080B400AF00BFBD4680BC7047FFF7F8FF62
:100E0C000B480C490C4A002302E0D458C45004335C
:100E1C00C4188C42F9D3094A094C002301E0136031
:100E2C000432A242FBD301F067FBFFF789F970474C
:100E3C000000002018000020902500081800002059
:100E4C0060010020FEE7000080B500AF084B1B6876
:100E5C00074A43F010031360032000F047F90F20FA
:100E6C0000F008F8FFF788FB0023184680BD00BF90
:100E7C000020024080B582B000AF7860124B1A6837
:100E8C00124B1B7819464FF47A73B3FBF1F3B2FB98
:100E9C00F3F3184600F05FF90346002B01D0012351
:100EAC000EE07B680F2B0AD8002279684FF0FF30D8
:100EBC0000F027F9064A7B681360002300E0012349
:100ECC0018460837BD4680BD0C00002014000020D9
:100EDC001000002080B400AF054B1B781A46054B60
:100EEC001B681344034A136000BFBD4680BC7047A7
:100EFC00140000205C01002080B400AF024B1B6882
:100F0C001846BD4680BC70475C01002080B584B09B
:100F1C0000AF7860FFF7F0FFB8607B68FB60FB68A0
:100F2C00B3F1FF3F05D00A4B1B781A46FB681344FC
:100F3C00FB6000BFFFF7E0FF0246BB68D31AFA68FC
:100F4C009A42F7D800BF00BF1037BD4680BD00BF26
:100F5C001400002080B485B000AF78607B6803F08B
:100F6C000703FB600C4BDB68BB60BA684FF6FF03F2
:100F7C001340BB60FB681A02BB68134343F0BF63AA
:100F8C0043F40033BB60044ABB68D36000BF143722
:100F9C00BD4680BC704700BF00ED00E080B400AFE0
:100FAC00044BDB681B0A03F007031846BD4680BCE4
:100FBC00704700BF00ED00E080B483B000AF034683
:100FCC00FB7197F90730002B0BDBFB7903F01F0249
:100FDC00064997F907305B09012000FA02F241F843
:100FEC00232000BF0C37BD4680BC704700E100E0F9
:100FFC0080B483B000AF03463960FB7197F90730BA
:10100C00002B0ADB3B68DAB20C4997F90730120166
:10101C00D2B20B4483F800230AE03B68DAB20849E9
:10102C00FB7903F00F03043B1201D2B20B441A7686
:10103C0000BF0C37BD4680BC704700BF00E100E02C
:10104C0000ED00E080B489B000AFF860B9607A6060
:10105C00FB6803F00703FB61FB69C3F10703042B77
:10106C0028BF0423BB61FB690433062B02D9FB693F
:10107C00033B00E000237B614FF0FF32BB6902FAB7
:10108C0003F3DA43BB681A407B699A404FF0FF3197
:10109C007B6901FA03F3D9437B680B401343184671
:1010AC002437BD4680BC704780B582B000AF7860F5
:1010BC007B68013BB3F1807F01D301230FE00A4A27
:1010CC007B68013B53600F214FF0FF30FFF790FF1F
:1010DC00054B00229A60044B07221A600023184625
:1010EC000837BD4680BD00BF10E000E080B582B07F
:1010FC0000AF78607868FFF72DFF00BF0837BD465A
:10110C0080BD80B586B000AF0346B9607A60FB73D2
:10111C0000237B61FFF742FF78617A68B9687869D0
:10112C00FFF790FF024697F90F3011461846FFF76C
:10113C005FFF00BF1837BD4680BD80B582B000AFE1
:10114C000346FB7197F907301846FFF735FF00BFD0
:10115C000837BD4680BD80B582B000AF7860786836
:10116C00FFF7A2FF034618460837BD4680BD0000B6
:10117C0080B48BB000AF7860396000237B620023B1
:10118C003B6269E101227B6A02FA03F3FB613B6873
:10119C001B68FA691340BB61BA69FB699A4240F05B
:1011AC0058813B685B689A4A93425ED0984A934256
:1011BC0075D8984A934258D0964A93426FD8964A1B
:1011CC00934252D0944A934269D8944A93424CD059
:1011DC00924A934263D8924A934246D0904A9342A1
:1011EC005DD8122B2AD8122B59D801A252F823F011
:1011FC00771200085112000863120008A5120008AB
:10120C00AB120008AB120008AB120008AB120008BE
:10121C00AB120008AB120008AB120008AB120008AE
:10122C00AB120008AB120008AB120008AB1200089E
:10123C00AB120008591200086D120008794A93424B
:10124C0013D02CE03B68DB683B6229E03B68DB6831
:10125C0004333B6224E03B68DB6808333B621FE0ED
:10126C003B68DB680C333B621AE03B689B68002BE5
:10127C0002D104233B6213E03B689B68012B05D130
:10128C0008233B627B68FA691A6109E008233B6218
:10129C007B68FA695A6103E000233B6200E000BFFF
:1012AC00BB69FF2B01D87B6801E07B6804337B6151
:1012BC00BB69FF2B02D87B6A9B0002E07B6A083B70
:1012CC009B003B617B691A680F213B6901FA03F3B0
:1012DC00DB431A40396A3B6901FA03F31A437B6911
:1012EC001A603B685B6803F08053002B00F0B18000
:1012FC004D4B9B694C4A43F0010393614A4B9B69EC
:10130C0003F00103BB60BB68484A7B6A9B0802334D
:10131C0052F82330FB607B6A03F003039B000F221F
:10132C0002FA03F3DB43FA681340FB607B68404A24
:10133C00934213D07B683F4A93420DD07B683E4A60
:10134C00934207D07B683D4A934201D1032306E0C8
:10135C00042304E0022302E0012300E000237A6A64
:10136C0002F0030292009340FA681343FB602F498A
:10137C007B6A9B080233FA6841F823203B685B6860
:10138C0003F48013002B06D02D4B9A682C49BB69B3
:10139C0013438B6006E02A4B9A68BB69DB432849F0
:1013AC0013408B603B685B6803F40013002B06D082
:1013BC00234BDA682249BB691343CB6006E0204B10
:1013CC00DA68BB69DB431E491340CB603B685B6842
:1013DC0003F40033002B06D0194B5A681849BB692B
:1013EC0013434B6006E0164B5A68BB69DB43144948
:1013FC0013404B603B685B6803F48033002B21D0B7
:10140C000F4B1A680E49BB6913430B6021E000BFF8
:10141C0000003210000031100000221000002110DA
:10142C0000001210000011100010024000000140DA
:10143C0000080140000C0140001001400014014064
:10144C00000401400B4B1A68BB69DB43094913408C
:10145C000B607B6A01337B623B681A687B6A22FAF9
:10146C0003F3002B7FF48EAE00BF00BF2C37BD46BC
:10147C0080BC70470004014080B483B000AF78603A
:10148C000B467B8013467B707B78002B03D07A88CD
:10149C007B681A6103E07B881A047B681A6100BFC1
:1014AC000C37BD4680BC704780B485B000AF786007
:1014BC000B467B807B68DB68FB607A88FB6813409B
:1014CC001A04FB68D9437B880B401A437B681A616A
:1014DC0000BF1437BD4680BC7047000080B582B099
:1014EC0000AF0346FB80084B5A69FB881340002B66
:1014FC0006D0054AFB885361FB88184600F006F8B5
:10150C0000BF0837BD4680BD0004014080B483B0E5
:10151C0000AF0346FB8000BF0C37BD4680BC704754
:10152C0080B586B000AF78607B68002B01D10123B9
:10153C0072E27B681B6803F00103002B00F08780CC
:10154C00924B5B6803F00C03042B0CD08F4B5B6845
:10155C0003F00C03082B12D18C4B5B6803F4803323
:10156C00B3F5803F0BD1894B1B6803F40033002B80
:10157C006CD07B685B68002B68D101234CE27B68E4
:10158C005B68B3F5803F06D1804B1B687F4A43F400
:10159C00803313602EE07B685B68002B0CD17B4B97
:1015AC001B687A4A23F480331360784B1B68774AA4
:1015BC0023F4802313601DE07B685B68B3F5A02FD8
:1015CC000CD1724B1B68714A43F4802313606F4B30
:1015DC001B686E4A43F4803313600BE06B4B1B6843
:1015EC006A4A23F480331360684B1B68674A23F400
:1015FC00802313607B685B68002B13D0FFF77CFCA7
:10160C00386108E0FFF778FC02463B69D31A642B7B
:10161C0001D9032300E25D4B1B6803F40033002B5C
:10162C00F0D014E0FFF768FC386108E0FFF764FCC9
:10163C0002463B69D31A642B01D90323ECE1534BCB
:10164C001B6803F40033002BF0D100E000BF7B6873
:10165C001B6803F00203002B63D04C4B5B6803F058
:10166C000C03002B0BD0494B5B6803F00C03082BCD
:10167C001CD1464B5B6803F48033002B16D1434BD3
:10168C001B6803F00203002B05D07B681B69012B40
:10169C0001D00123C0E13D4B1B6823F0F8027B68AD
:1016AC005B69DB00394913430B603AE07B681B69CB
:1016BC00002B20D0364B01221A60FFF71DFC38613D
:1016CC0008E0FFF719FC02463B69D31A022B01D93B
:1016DC000323A1E12D4B1B6803F00203002BF0D078
:1016EC002A4B1B6823F0F8027B685B69DB002749F7
:1016FC0013430B6015E0264B00221A60FFF7FCFB2E
:10170C00386108E0FFF7F8FB02463B69D31A022B5D
:10171C0001D9032380E11D4B1B6803F00203002B4E
:10172C00F0D17B681B6803F00803002B3AD07B6870
:10173C009B69002B19D0174B01221A60FFF7DCFBB9
:10174C00386108E0FFF7D8FB02463B69D31A022B3D
:10175C0001D9032360E10D4B5B6A03F00203002BFC
:10176C00F0D0012000F09CFA1CE00A4B00221A6019
:10177C00FFF7C2FB38610FE0FFF7BEFB02463B6987
:10178C00D31A022B08D9032346E100BF00100240F4
:10179C000000424280044242924B5B6A03F0020317
:1017AC00002BE9D17B681B6803F00403002B00F0CD
:1017BC00A6800023FB758B4BDB6903F08053002B59
:1017CC000DD1884BDB69874A43F08053D361854B3D
:1017DC00DB6903F08053BB60BB680123FB75824B54
:1017EC001B6803F48073002B18D17F4B1B687E4A57
:1017FC0043F480731360FFF77FFB386108E0FFF759
:10180C007BFB02463B69D31A642B01D9032303E10A
:10181C00754B1B6803F48073002BF0D07B68DB687E
:10182C00012B06D16F4B1B6A6E4A43F00103136206
:10183C002DE07B68DB68002B0CD16A4B1B6A694A74
:10184C0023F001031362674B1B6A664A23F00403FF
:10185C0013621CE07B68DB68052B0CD1614B1B6AA7
:10186C00604A43F0040313625E4B1B6A5D4A43F00B
:10187C00010313620BE05B4B1B6A5A4A23F0010312
:10188C001362584B1B6A574A23F0040313627B689C
:10189C00DB68002B15D0FFF72FFB38610AE0FFF750
:1018AC002BFB02463B69D31A41F28832934201D991
:1018BC000323B1E04B4B1B6A03F00203002BEED069
:1018CC0014E0FFF719FB38610AE0FFF715FB02463D
:1018DC003B69D31A41F28832934201D903239BE02E
:1018EC00404B1B6A03F00203002BEED1FB7D012B56
:1018FC0005D13C4BDB693B4A23F08053D3617B68B9
:10190C00DB69002B00F08780364B5B6803F00C031F
:10191C00082B61D07B68DB69022B46D1334B00224C
:10192C001A60FFF7E9FA386108E0FFF7E5FA0246BA
:10193C003B69D31A022B01D903236DE0294B1B6899
:10194C0003F00073002BF0D17B681B6AB3F5803F6A
:10195C0008D1244B5B6823F400327B689B682149D7
:10196C0013434B601F4B5B6823F474127B68196A3A
:10197C007B685B6A0B431B4913434B601B4B012277
:10198C001A60FFF7B9FA386108E0FFF7B5FA0246BA
:10199C003B69D31A022B01D903233DE0114B1B6881
:1019AC0003F00073002BF0D035E0104B00221A60CE
:1019BC00FFF7A2FA386108E0FFF79EFA02463B698E
:1019CC00D31A022B01D9032326E0064B1B6803F024
:1019DC000073002BF0D11EE07B68DB69012B07D173
:1019EC00012319E0001002400070004060004242E8
:1019FC000B4B5B68FB60FB6803F480327B681B6AF3
:101A0C009A4206D1FB6803F470127B685B6A9A42B7
:101A1C0001D0012300E0002318461837BD4680BDD5
:101A2C000010024080B584B000AF786039607B68EC
:101A3C00002B01D10123D0E06A4B1B6803F0070394
:101A4C003A689A4210D9674B1B6823F00702654924
:101A5C003B6813430B60634B1B6803F007033A6846
:101A6C009A4201D00123B8E07B681B6803F00203A3
:101A7C00002B20D07B681B6803F00403002B05D0DF
:101A8C00594B5B68584A43F4E06353607B681B68AE
:101A9C0003F00803002B05D0534B5B68524A43F408
:101AAC0060535360504B5B6823F0F0027B689B687B
:101ABC004D4913434B607B681B6803F00103002BFB
:101ACC0040D07B685B68012B07D1474B1B6803F444
:101ADC000033002B15D101237FE07B685B68022B60
:101AEC0007D1414B1B6803F00073002B09D1012374
:101AFC0073E03D4B1B6803F00203002B01D1012363
:101B0C006BE0394B5B6823F003027B685B683649FA
:101B1C0013434B60FFF7F0F9F8600AE0FFF7ECF9BC
:101B2C000246FB68D31A41F28832934201D903234F
:101B3C0053E02D4B5B6803F00C027B685B689B00E9
:101B4C009A42EBD1274B1B6803F007033A689A4281
:101B5C0010D2244B1B6823F0070222493B68134325
:101B6C000B60204B1B6803F007033A689A4201D0C4
:101B7C00012332E07B681B6803F00403002B08D0C0
:101B8C00194B5B6823F4E0627B68DB6816491343EE
:101B9C004B607B681B6803F00803002B09D0124BC9
:101BAC005B6823F460527B681B69DB000E491343AE
:101BBC004B6000F021F802460B4B5B681B0903F0ED
:101BCC000F030A49CB5C22FA03F3094A1360094B51
:101BDC001B681846FFF74EF9002318461037BD4610
:101BEC0080BD00BF002002400010024064250008A8
:101BFC000C0000201000002080B487B000AF002340
:101C0C00FB600023BB6000237B6100237B6000230F
:101C1C003B611E4B5B68FB60FB6803F00C03042B01
:101C2C0002D0082B03D027E0194B3B6127E0FB685F
:101C3C009B0C03F00F03174AD35C7B60FB6803F427
:101C4C008033002B10D0114B5B685B0C03F001034D
:101C5C00114AD35CBB607B680D4A03FB02F2BB6884
:101C6C00B2FBF3F37B6104E07B680C4A02FB03F3E9
:101C7C007B617B693B6102E0054B3B6100BF3B69CB
:101C8C0018461C37BD4680BC704700BF0010024090
:101C9C0000127A00742500088425000800093D0014
:101CAC0080B485B000AF78600A4B1B680A4AA2FB6F
:101CBC0003235B0A7A6802FB03F3FB6000BFFB683B
:101CCC005A1EFA60002BF9D100BF00BF1437BD4675
:101CDC0080BC70470C000020D34D621080B582B0E0
:101CEC0000AF78607B68002B01D1012341E07B6859
:101CFC0093F83D30DBB2002B06D17B68002283F8D1
:101D0C003C207868FEF76AFC7B68022283F83D2051
:101D1C007B681A687B6804331946104600F07CFA1D
:101D2C007B68012283F846207B68012283F83E20E1
:101D3C007B68012283F83F207B68012283F84020D6
:101D4C007B68012283F841207B68012283F84220C2
:101D5C007B68012283F843207B68012283F84420AE
:101D6C007B68012283F845207B68012283F83D20A3
:101D7C00002318460837BD4680BD000080B485B0EE
:101D8C0000AF78607B6893F83D30DBB2012B01D05B
:101D9C0001233AE07B68022283F83D207B681B68B4
:101DAC00DA687B681B6842F00102DA607B681B68AA
:101DBC00184A93420ED07B681B68B3F1804F09D050
:101DCC007B681B68144A934204D07B681B68134AD7
:101DDC00934211D17B681B689B6803F00703FB607F
:101DEC00FB68062B10D07B681B681A687B681B6825
:101DFC0042F001021A6007E07B681B681A687B6876
:101E0C001B6842F001021A60002318461437BD46C5
:101E1C0080BC7047002C01400004004000080040CA
:101E2C0080B582B000AF78607B681B681B6903F0DB
:101E3C000203022B22D17B681B68DB6803F00203D0
:101E4C00022B1BD17B681B686FF002021A617B6846
:101E5C0001221A777B681B689B6903F00303002B34
:101E6C0003D0786800F0BDF905E0786800F0B0F9AF
:101E7C00786800F0BFF97B6800221A777B681B68D2
:101E8C001B6903F00403042B22D17B681B68DB68FD
:101E9C0003F00403042B1BD17B681B686FF0040256
:101EAC001A617B6802221A777B681B689B6903F4B2
:101EBC004073002B03D0786800F093F905E0786844
:101ECC0000F086F9786800F095F97B6800221A77A3
:101EDC007B681B681B6903F00803082B22D17B6805
:101EEC001B68DB6803F00803082B1BD17B681B689D
:101EFC006FF008021A617B6804221A777B681B68F2
:101F0C00DB6903F00303002B03D0786800F069F958
:101F1C0005E0786800F05CF9786800F06BF97B6894
:101F2C0000221A777B681B681B6903F01003102BC7
:101F3C0022D17B681B68DB6803F01003102B1BD1CC
:101F4C007B681B686FF010021A617B6808221A7795
:101F5C007B681B68DB6903F44073002B03D0786843
:101F6C0000F03FF905E0786800F032F9786800F08D
:101F7C0041F97B6800221A777B681B681B6903F0A8
:101F8C000103012B0ED17B681B68DB6803F0010396
:101F9C00012B07D17B681B686FF001021A6178680E
:101FAC0000F00DF97B681B681B6903F08003802B24
:101FBC000ED17B681B68DB6803F08003802B07D194
:101FCC007B681B686FF080021A61786800F083FAF6
:101FDC007B681B681B6903F04003402B0ED17B68A8
:101FEC001B68DB6803F04003402B07D17B681B6840
:101FFC006FF040021A61786800F005F97B681B6885
:10200C001B6903F02003202B0ED17B681B68DB6857
:10201C0003F02003202B07D17B681B686FF0200294
:10202C001A61786800F04EFA00BF0837BD4680BDD3
:10203C0080B584B000AF786039600023FB737B6897
:10204C0093F83C30012B01D10223B4E07B680122D0
:10205C0083F83C207B68022283F83D207B681B6858
:10206C009B68BB60BB6823F07703BB60BB6823F441
:10207C007F43BB607B681B68BA689A603B681B68CF
:10208C00B3F5005F3ED0B3F5005F00F28780B3F587
:10209C00805F00F08680B3F5805F7FD8702B1AD0FC
:1020AC00702B7BD8602B50D0602B77D8502B3CD02A
:1020BC00502B73D8402B58D0402B6FD8302B64D07A
:1020CC00302B6BD8202B60D0202B67D8002B5CD00A
:1020DC00102B5AD062E07B6818683B6899683B68A3
:1020EC005A683B68DB6800F070F97B681B689B687A
:1020FC00BB60BB6843F07703BB607B681B68BA6846
:10210C009A604FE07B6818683B6899683B685A682E
:10211C003B68DB6800F059F97B681B689A687B6840
:10212C001B6842F480429A603CE07B6818683B680C
:10213C0059683B68DB681A4600F0D0F87B681B686E
:10214C005021184600F027F92CE07B6818683B6892
:10215C0059683B68DB681A4600F0EEF87B681B6830
:10216C006021184600F017F91CE07B6818683B6882
:10217C0059683B68DB681A4600F0B0F87B681B684E
:10218C004021184600F007F90CE07B681A683B68A0
:10219C001B681946104600F0FEF803E00123FB73A0
:1021AC0000E000BF7B68012283F83D207B680022A1
:1021BC0083F83C20FB7B18461037BD4680BD80B4AD
:1021CC0083B000AF786000BF0C37BD4680BC704751
:1021DC0080B483B000AF786000BF0C37BD4680BCC4
:1021EC00704780B483B000AF786000BF0C37BD4639
:1021FC0080BC704780B483B000AF786000BF0C37F0
:10220C00BD4680BC704780B483B000AF786000BF1F
:10221C000C37BD4680BC704780B485B000AF786089
:10222C0039607B681B68FB607B68294A93420BD042
:10223C007B68B3F1804F07D07B68264A934203D06A
:10224C007B68254A934208D1FB6823F07003FB603E
:10225C003B685B68FA681343FB607B681C4A9342DB
:10226C000BD07B68B3F1804F07D07B68194A93423F
:10227C0003D07B68184A934208D1FB6823F440735F
:10228C00FB603B68DB68FA681343FB60FB6823F078
:10229C0080023B685B691343FB607B68FA681A60D9
:1022AC003B689A687B68DA623B681A687B689A625A
:1022BC007B68074A934203D13B681A697B681A63AF
:1022CC007B6801225A6100BF1437BD4680BC704741
:1022DC00002C0140000400400008004080B487B08E
:1022EC0000AFF860B9607A60FB681B6A7B61FB68C1
:1022FC001B6A23F00102FB681A62FB689B693B6155
:10230C003B6923F0F0033B617B681B013A69134383
:10231C003B617B6923F00A037B617A69BB681343D9
:10232C007B61FB683A699A61FB687A691A6200BF43
:10233C001C37BD4680BC704780B487B000AFF860D6
:10234C00B9607A60FB681B6A7B61FB681B6A23F0CF
:10235C001002FB681A62FB689B693B613B6923F4C2
:10236C0070433B617B681B033A6913433B617B6998
:10237C0023F0A0037B61BB681B017A6913437B616B
:10238C00FB683A699A61FB687A691A6200BF1C376C
:10239C00BD4680BC704780B485B000AF78603960B2
:1023AC007B689B68FB60FB6823F07003FB603A68FA
:1023BC00FB68134343F00703FB607B68FA689A6081
:1023CC0000BF1437BD4680BC704780B487B000AFE7
:1023DC00F860B9607A603B60FB689B687B617B69E5
:1023EC0023F47F437B613B681A027B681A43BB680A
:1023FC0013437A6913437B61FB687A699A6000BF67
:10240C001C37BD4680BC704780B485B000AF786087
:10241C0039607B6893F83C30012B01D1022346E0F4
:10242C007B68012283F83C207B68022283F83D20E4
:10243C007B681B685B68FB607B681B689B68BB6088
:10244C00FB6823F07003FB603B681B68FA6813435E
:10245C00FB607B681B68FA685A607B681B68164ACD
:10246C0093420ED07B681B68B3F1804F09D07B6818
:10247C001B68124A934204D07B681B68104A934233
:10248C000CD1BB6823F08003BB603B685B68BA6807
:10249C001343BB607B681B68BA689A607B68012237
:1024AC0083F83D207B68002283F83C2000231846EB
:1024BC001437BD4680BC7047002C0140000400401E
:1024CC000008004080B483B000AF786000BF0C37C8
:1024DC00BD4680BC704780B483B000AF786000BF4D
:1024EC000C37BD4680BC704703460244934200D172
:1024FC00704703F8011BF9E770B500260C4D0D4C25
:10250C00641BA410A64209D100F01AF800260A4D4B
:10251C000A4C641BA410A64205D170BD55F8043BAF
:10252C0098470136EEE755F8043B98470136F2E739
:10253C008825000888250008882500088C250008B7
:10254C00F8B500BFF8BC08BC9E467047F8B500BF94
:08255C00F8BC08BC9E46704764
:10256400000000000000000001020304060708093F
:1025740002030405060708090A0B0C0D0E0F1010C0
:042584000102000050
:042588003101000815
:04258C000D01000835
:102590000400E703E703E703E70300000024F40077
:0825A000100000000100000022
:0400000508000E09D8
:00000001FF
